{
  "contractName": "Storage",
  "abi": [
    {
      "inputs": [
        {
          "internalType": "address",
          "name": "",
          "type": "address"
        }
      ],
      "name": "commitmentMap",
      "outputs": [
        {
          "internalType": "bytes32",
          "name": "x",
          "type": "bytes32"
        },
        {
          "internalType": "bytes32",
          "name": "y",
          "type": "bytes32"
        }
      ],
      "stateMutability": "view",
      "type": "function",
      "constant": true
    },
    {
      "inputs": [
        {
          "components": [
            {
              "internalType": "bytes32",
              "name": "x",
              "type": "bytes32"
            },
            {
              "internalType": "bytes32",
              "name": "y",
              "type": "bytes32"
            }
          ],
          "internalType": "struct Storage.Point",
          "name": "p1",
          "type": "tuple"
        },
        {
          "components": [
            {
              "internalType": "bytes32",
              "name": "x",
              "type": "bytes32"
            },
            {
              "internalType": "bytes32",
              "name": "y",
              "type": "bytes32"
            }
          ],
          "internalType": "struct Storage.Point",
          "name": "p2",
          "type": "tuple"
        },
        {
          "internalType": "uint256",
          "name": "r",
          "type": "uint256"
        }
      ],
      "name": "test",
      "outputs": [],
      "stateMutability": "view",
      "type": "function",
      "constant": true
    },
    {
      "inputs": [
        {
          "internalType": "address",
          "name": "_addr",
          "type": "address"
        },
        {
          "components": [
            {
              "internalType": "bytes32",
              "name": "x",
              "type": "bytes32"
            },
            {
              "internalType": "bytes32",
              "name": "y",
              "type": "bytes32"
            }
          ],
          "internalType": "struct Storage.Point",
          "name": "_commitment",
          "type": "tuple"
        }
      ],
      "name": "setCommitment",
      "outputs": [],
      "stateMutability": "nonpayable",
      "type": "function"
    },
    {
      "inputs": [
        {
          "internalType": "address",
          "name": "_addr",
          "type": "address"
        }
      ],
      "name": "getCommitment",
      "outputs": [
        {
          "components": [
            {
              "internalType": "bytes32",
              "name": "x",
              "type": "bytes32"
            },
            {
              "internalType": "bytes32",
              "name": "y",
              "type": "bytes32"
            }
          ],
          "internalType": "struct Storage.Point",
          "name": "",
          "type": "tuple"
        }
      ],
      "stateMutability": "view",
      "type": "function",
      "constant": true
    },
    {
      "inputs": [
        {
          "components": [
            {
              "internalType": "bytes32",
              "name": "x",
              "type": "bytes32"
            },
            {
              "internalType": "bytes32",
              "name": "y",
              "type": "bytes32"
            }
          ],
          "internalType": "struct Storage.Point",
          "name": "p1",
          "type": "tuple"
        },
        {
          "components": [
            {
              "internalType": "bytes32",
              "name": "x",
              "type": "bytes32"
            },
            {
              "internalType": "bytes32",
              "name": "y",
              "type": "bytes32"
            }
          ],
          "internalType": "struct Storage.Point",
          "name": "p2",
          "type": "tuple"
        }
      ],
      "name": "addPoints",
      "outputs": [
        {
          "components": [
            {
              "internalType": "bytes32",
              "name": "x",
              "type": "bytes32"
            },
            {
              "internalType": "bytes32",
              "name": "y",
              "type": "bytes32"
            }
          ],
          "internalType": "struct Storage.Point",
          "name": "",
          "type": "tuple"
        }
      ],
      "stateMutability": "view",
      "type": "function",
      "constant": true
    },
    {
      "inputs": [
        {
          "components": [
            {
              "internalType": "bytes32",
              "name": "x",
              "type": "bytes32"
            },
            {
              "internalType": "bytes32",
              "name": "y",
              "type": "bytes32"
            }
          ],
          "internalType": "struct Storage.Point",
          "name": "point",
          "type": "tuple"
        },
        {
          "internalType": "uint256",
          "name": "scalar",
          "type": "uint256"
        }
      ],
      "name": "multiplyPoint",
      "outputs": [
        {
          "components": [
            {
              "internalType": "bytes32",
              "name": "x",
              "type": "bytes32"
            },
            {
              "internalType": "bytes32",
              "name": "y",
              "type": "bytes32"
            }
          ],
          "internalType": "struct Storage.Point",
          "name": "",
          "type": "tuple"
        }
      ],
      "stateMutability": "view",
      "type": "function",
      "constant": true
    },
    {
      "inputs": [
        {
          "components": [
            {
              "internalType": "bytes32",
              "name": "x",
              "type": "bytes32"
            },
            {
              "internalType": "bytes32",
              "name": "y",
              "type": "bytes32"
            }
          ],
          "internalType": "struct Storage.Point[]",
          "name": "leafNodes",
          "type": "tuple[]"
        },
        {
          "internalType": "uint256",
          "name": "r",
          "type": "uint256"
        }
      ],
      "name": "layerWiseMultiplication",
      "outputs": [
        {
          "components": [
            {
              "internalType": "bytes32",
              "name": "x",
              "type": "bytes32"
            },
            {
              "internalType": "bytes32",
              "name": "y",
              "type": "bytes32"
            }
          ],
          "internalType": "struct Storage.Point",
          "name": "",
          "type": "tuple"
        }
      ],
      "stateMutability": "view",
      "type": "function",
      "constant": true
    },
    {
      "inputs": [
        {
          "components": [
            {
              "internalType": "bytes32",
              "name": "x",
              "type": "bytes32"
            },
            {
              "internalType": "bytes32",
              "name": "y",
              "type": "bytes32"
            }
          ],
          "internalType": "struct Storage.Point[]",
          "name": "points",
          "type": "tuple[]"
        },
        {
          "internalType": "uint256",
          "name": "r",
          "type": "uint256"
        }
      ],
      "name": "batchScalarMultiply",
      "outputs": [
        {
          "components": [
            {
              "internalType": "bytes32",
              "name": "x",
              "type": "bytes32"
            },
            {
              "internalType": "bytes32",
              "name": "y",
              "type": "bytes32"
            }
          ],
          "internalType": "struct Storage.Point",
          "name": "",
          "type": "tuple"
        }
      ],
      "stateMutability": "view",
      "type": "function",
      "constant": true
    }
  ],
  "bytecode": "0x608060405234801561001057600080fd5b50610f75806100206000396000f3fe608060405234801561001057600080fd5b50600436106100885760003560e01c8063abeb72b81161005b578063abeb72b81461014e578063fa1026dd1461016a578063fa1cda0c1461019a578063fa805834146101ca57610088565b80632e1e08f71461008d57806357899872146100bd57806377247d7e146100ed57806377b761ba1461011d575b600080fd5b6100a760048036038101906100a291906109d2565b6101e6565b6040516100b49190610a50565b60405180910390f35b6100d760048036038101906100d29190610a6b565b61023b565b6040516100e49190610a50565b60405180910390f35b61010760048036038101906101029190610b78565b61029b565b6040516101149190610a50565b60405180910390f35b61013760048036038101906101329190610c32565b6102d5565b604051610145929190610c6e565b60405180910390f35b61016860048036038101906101639190610c97565b6102f9565b005b610184600480360381019061017f9190610c32565b61036b565b6040516101919190610a50565b60405180910390f35b6101b460048036038101906101af9190610b78565b6103d7565b6040516101c19190610a50565b60405180910390f35b6101e460048036038101906101df9190610cea565b610479565b005b6101ee610851565b6101f6610851565b604051845181526020850151602082015283604082015260408160608360075afa8061022157600080fd5b815183526020820151602084015250508091505092915050565b610243610851565b61024b610851565b6040518451815260208501516020820152835160408201526020840151606082015260408160808360065afa8061028157600080fd5b815183526020820151602084015250508091505092915050565b6102a3610851565b60006102ae846104d3565b9050836000815181106102c4576102c3610d2a565b5b602002602001015191505092915050565b60006020528060005260406000206000915090508060000154908060010154905082565b7f30644e72e131a029b85045b68181585d2833e84879b9709143e1f593f00000018160405160200161032b9190610d7a565b6040516020818303038152906040528051906020012060001c61034e9190610dc4565b905061035a838361023b565b5061036583826101e6565b50505050565b610373610851565b6000808373ffffffffffffffffffffffffffffffffffffffff1673ffffffffffffffffffffffffffffffffffffffff168152602001908152602001600020604051806040016040529081600082015481526020016001820154815250509050919050565b6103df610851565b60006103ea83610685565b905060008460008151811061040257610401610d2a565b5b602002602001015190506000600190505b855181101561046d57600061042882856107ca565b90506104578361045289858151811061044457610443610d2a565b5b6020026020010151846101e6565b61023b565b925050808061046590610e24565b915050610413565b50809250505092915050565b806000808473ffffffffffffffffffffffffffffffffffffffff1673ffffffffffffffffffffffffffffffffffffffff16815260200190815260200160002060008201518160000155602082015181600101559050505050565b6060600082519050600060016002836104ec9190610e6c565b6104f69190610eae565b905060008167ffffffffffffffff8111156105145761051361089b565b5b60405190808252806020026020018201604052801561054d57816020015b61053a610851565b8152602001906001900390816105325790505b50905060005b838110156105be5785818151811061056e5761056d610d2a565b5b602002602001015182826001876105859190610eae565b61058f9190610ee2565b815181106105a05761059f610d2a565b5b602002602001018190525080806105b690610e24565b915050610553565b5060006001846105ce9190610eae565b90505b60008111156106795761063c8260018360026105ed9190610e6c565b6105f79190610eae565b8151811061060857610607610d2a565b5b60200260200101518383600261061e9190610e6c565b8151811061062f5761062e610d2a565b5b602002602001015161023b565b8260018361064a9190610eae565b8151811061065b5761065a610d2a565b5b6020026020010181905250808061067190610f16565b9150506105d1565b50809350505050919050565b60606000600c905060018161069a9190610ee2565b67ffffffffffffffff8111156106b3576106b261089b565b5b6040519080825280602002602001820160405280156106e15781602001602082028036833780820191505090505b50915082826000815181106106f9576106f8610d2a565b5b6020026020010181815250506000600190505b8181116107c3577f30644e72e131a029b85045b68181585d2833e84879b9709143e1f593f00000018061074257610741610d95565b5b836001836107509190610eae565b8151811061076157610760610d2a565b5b6020026020010151846001846107779190610eae565b8151811061078857610787610d2a565b5b6020026020010151098382815181106107a4576107a3610d2a565b5b60200260200101818152505080806107bb90610e24565b91505061070c565b5050919050565b6000805b600084111561084a57600180851603610830577f30644e72e131a029b85045b68181585d2833e84879b9709143e1f593f0000001806108105761080f610d95565b5b83828151811061082357610822610d2a565b5b6020026020010151830891505b600184901c9350808061084290610e24565b9150506107ce565b5092915050565b604051806040016040528060008019168152602001600080191681525090565b6000604051905090565b600080fd5b600080fd5b600080fd5b6000601f19601f8301169050919050565b7f4e487b7100000000000000000000000000000000000000000000000000000000600052604160045260246000fd5b6108d38261088a565b810181811067ffffffffffffffff821117156108f2576108f161089b565b5b80604052505050565b6000610905610871565b905061091182826108ca565b919050565b6000819050919050565b61092981610916565b811461093457600080fd5b50565b60008135905061094681610920565b92915050565b60006040828403121561096257610961610885565b5b61096c60406108fb565b9050600061097c84828501610937565b600083015250602061099084828501610937565b60208301525092915050565b6000819050919050565b6109af8161099c565b81146109ba57600080fd5b50565b6000813590506109cc816109a6565b92915050565b600080606083850312156109e9576109e861087b565b5b60006109f78582860161094c565b9250506040610a08858286016109bd565b9150509250929050565b610a1b81610916565b82525050565b604082016000820151610a376000850182610a12565b506020820151610a4a6020850182610a12565b50505050565b6000604082019050610a656000830184610a21565b92915050565b60008060808385031215610a8257610a8161087b565b5b6000610a908582860161094c565b9250506040610aa18582860161094c565b9150509250929050565b600080fd5b600067ffffffffffffffff821115610acb57610aca61089b565b5b602082029050602081019050919050565b600080fd5b6000610af4610aef84610ab0565b6108fb565b90508083825260208201905060408402830185811115610b1757610b16610adc565b5b835b81811015610b405780610b2c888261094c565b845260208401935050604081019050610b19565b5050509392505050565b600082601f830112610b5f57610b5e610aab565b5b8135610b6f848260208601610ae1565b91505092915050565b60008060408385031215610b8f57610b8e61087b565b5b600083013567ffffffffffffffff811115610bad57610bac610880565b5b610bb985828601610b4a565b9250506020610bca858286016109bd565b9150509250929050565b600073ffffffffffffffffffffffffffffffffffffffff82169050919050565b6000610bff82610bd4565b9050919050565b610c0f81610bf4565b8114610c1a57600080fd5b50565b600081359050610c2c81610c06565b92915050565b600060208284031215610c4857610c4761087b565b5b6000610c5684828501610c1d565b91505092915050565b610c6881610916565b82525050565b6000604082019050610c836000830185610c5f565b610c906020830184610c5f565b9392505050565b600080600060a08486031215610cb057610caf61087b565b5b6000610cbe8682870161094c565b9350506040610ccf8682870161094c565b9250506080610ce0868287016109bd565b9150509250925092565b60008060608385031215610d0157610d0061087b565b5b6000610d0f85828601610c1d565b9250506020610d208582860161094c565b9150509250929050565b7f4e487b7100000000000000000000000000000000000000000000000000000000600052603260045260246000fd5b6000819050919050565b610d74610d6f8261099c565b610d59565b82525050565b6000610d868284610d63565b60208201915081905092915050565b7f4e487b7100000000000000000000000000000000000000000000000000000000600052601260045260246000fd5b6000610dcf8261099c565b9150610dda8361099c565b925082610dea57610de9610d95565b5b828206905092915050565b7f4e487b7100000000000000000000000000000000000000000000000000000000600052601160045260246000fd5b6000610e2f8261099c565b91507fffffffffffffffffffffffffffffffffffffffffffffffffffffffffffffffff8203610e6157610e60610df5565b5b600182019050919050565b6000610e778261099c565b9150610e828361099c565b9250828202610e908161099c565b91508282048414831517610ea757610ea6610df5565b5b5092915050565b6000610eb98261099c565b9150610ec48361099c565b9250828203905081811115610edc57610edb610df5565b5b92915050565b6000610eed8261099c565b9150610ef88361099c565b9250828201905080821115610f1057610f0f610df5565b5b92915050565b6000610f218261099c565b915060008203610f3457610f33610df5565b5b60018203905091905056fea264697066735822122016461d9dcffd18190697760ea5896fe78a70ee22acd8c6dca23a3fb64458ff3864736f6c63430008130033",
  "immutableReferences": {},
  "source": "pragma solidity ^0.8.9;\n\ncontract Storage {\n    struct Point {\n        bytes32 x;\n        bytes32 y;\n    }\n\n    mapping(address => Point) public commitmentMap;\n\n    function test(Point memory p1, Point memory p2, uint256 r) public view {\n        r =\n            uint256(keccak256(abi.encodePacked(r))) %\n            21888242871839275222246405745257275088548364400416034343698204186575808495617;\n        addPoints(p1, p2);\n        multiplyPoint(p1, r);\n    }\n\n    function setCommitment(address _addr, Point memory _commitment) public {\n        commitmentMap[_addr] = _commitment;\n    }\n\n    function getCommitment(address _addr) public view returns (Point memory) {\n        return commitmentMap[_addr];\n    }\n\n    function addPoints(\n        Point memory p1,\n        Point memory p2\n    ) public view returns (Point memory) {\n        Point memory result;\n\n        assembly {\n            // Free memory pointer\n            let ptr := mload(0x40)\n\n            // Store p1.x and p1.y in memory\n            mstore(ptr, mload(p1))\n            mstore(add(ptr, 0x20), mload(add(p1, 0x20)))\n\n            // Store p2.x and p2.y in memory\n            mstore(add(ptr, 0x40), mload(p2))\n            mstore(add(ptr, 0x60), mload(add(p2, 0x20)))\n\n            // Precompiled contract (0x06)\n            // p1.x, p1.y, p2.x, p2.y\n            let success := staticcall(gas(), 0x06, ptr, 0x80, ptr, 0x40)\n\n            // Check for success\n            if iszero(success) {\n                revert(0, 0)\n            }\n\n            // Load the result\n            mstore(result, mload(ptr))\n            mstore(add(result, 0x20), mload(add(ptr, 0x20)))\n        }\n\n        return result;\n    }\n\n    function multiplyPoint(\n        Point memory point,\n        uint256 scalar\n    ) public view returns (Point memory) {\n        Point memory result;\n        assembly {\n            // Free memory pointer\n            let ptr := mload(0x40)\n\n            // Store point.x and point.y in memory\n            mstore(ptr, mload(point))\n            mstore(add(ptr, 0x20), mload(add(point, 0x20)))\n\n            // Store scalar in memory\n            mstore(add(ptr, 0x40), scalar)\n\n            // Precompiled contract (0x07)\n            // point.x, point.y, scalar\n            let success := staticcall(gas(), 0x07, ptr, 0x60, ptr, 0x40)\n\n            // Check for success\n            if iszero(success) {\n                revert(0, 0)\n            }\n\n            // Load the result\n            mstore(result, mload(ptr))\n            mstore(add(result, 0x20), mload(add(ptr, 0x20)))\n        }\n\n        return result;\n    }\n\n    // Function to construct the group addtion binary tree\n    function constructTree(\n        Point[] memory leafNodes\n    ) internal view returns (Point[] memory) {\n        //1838996\n        uint256 nodeCount = leafNodes.length;\n        uint256 totalNodes = nodeCount * 2 - 1;\n        Point[] memory tree = new Point[](totalNodes);\n        //2290146\n\n        // Fill the leaf nodes\n        for (uint256 i = 0; i < nodeCount; i++) {\n            tree[nodeCount - 1 + i] = leafNodes[i];\n        }\n        //2970114\n\n        // Calculate parent nodes using group addition\n        for (uint256 i = nodeCount - 1; i > 0; i--) {\n            tree[i - 1] = addPoints(tree[2 * i - 1], tree[2 * i]);\n        }\n\n        return tree;\n    }\n\n    function calculateEvenIndexedNodesSum(\n        Point[] memory nodes,\n        uint256 scalar\n    ) internal view returns (Point memory sum) {\n        sum = Point({x: 0, y: 0});\n        for (uint256 i = 1; i < nodes.length; i += 2) {\n            sum = addPoints(sum, nodes[i]);\n        }\n        sum = multiplyPoint(sum, scalar);\n        return sum;\n    }\n\n    function layerWiseMultiplication(\n        Point[] memory leafNodes,\n        uint256 r\n    ) external view returns (Point memory) {\n        //1838378\n        Point[] memory tree = constructTree(leafNodes);\n        //5067070\n        // r =\n        //     uint256(keccak256(abi.encodePacked(r))) %\n        //     21888242871839275222246405745257275088548364400416034343698204186575808495617;\n        // Point memory result = calculateEvenIndexedNodesSum(leafNodes, r);\n        // uint256 currentScalar = r;\n        // uint256 layerSize = leafNodes.length / 2;\n        // //5677766\n        // for (; layerSize >= 1; ) {\n        //     Point[] memory layerNodes = new Point[](layerSize);\n        //     //6035014\n        //     for (uint256 i = 0; i < layerSize; ++i) {\n        //         layerNodes[i] = tree[layerSize - 1 + i];\n        //     }\n        //     //6710636\n        //     currentScalar = mulmod(\n        //         currentScalar,\n        //         currentScalar,\n        //         21888242871839275222246405745257275088548364400416034343698204186575808495617\n        //     );\n        //     //6711026\n        //     Point memory layerSum = calculateEvenIndexedNodesSum(\n        //         layerNodes,\n        //         currentScalar\n        //     );\n        //     result = addPoints(result, layerSum);\n        //     //7435850\n        //     layerSize = layerSize / 2;\n        // }\n        // return addPoints(result, leafNodes[0]);\n        return leafNodes[0];\n    }\n\n    function precomputePowersOfR(\n        uint256 r\n    ) internal pure returns (uint256[] memory powers) {\n        uint256 maxPower = 12;\n        powers = new uint256[](maxPower + 1);\n        powers[0] = r;\n\n        for (uint256 i = 1; i <= maxPower; i++) {\n            powers[i] = mulmod(\n                powers[i - 1],\n                powers[i - 1],\n                21888242871839275222246405745257275088548364400416034343698204186575808495617\n            );\n        }\n    }\n\n    function computeScalarForIndex(\n        uint256 index,\n        uint256[] memory powersOfR\n    ) internal pure returns (uint256 scalar) {\n        scalar = 0;\n        uint256 i = 0;\n        while (index > 0) {\n            if (index & 1 == 1) {\n                scalar = addmod(\n                    scalar,\n                    powersOfR[i],\n                    21888242871839275222246405745257275088548364400416034343698204186575808495617\n                );\n            }\n            index >>= 1;\n            i++;\n        }\n    }\n\n    function batchScalarMultiply(\n        Point[] memory points,\n        uint256 r\n    ) external view returns (Point memory) {\n        //1838952\n        uint256[] memory powersOfR = precomputePowersOfR(r);\n        //1848624\n        Point memory result = points[0];\n\n        for (uint256 i = 1; i < points.length; i++) {\n            uint256 scalar = computeScalarForIndex(i, powersOfR); //  1  \n            //4615473\n            result = addPoints(result, multiplyPoint(points[i], scalar));\n            //12204788()\n        }\n\n        return result;\n    }\n}\n",
  "sourcePath": "/Users/mangoo/Documents/blockchain/record/contracts/Storage.sol",
  "compiler": {
    "name": "solc",
    "version": "0.8.19+commit.7dd6d404.Emscripten.clang"
  },
  "schemaVersion": "3.4.11",
  "updatedAt": "2023-11-06T07:49:42.006Z",
  "networkType": "ethereum",
  "devdoc": {
    "kind": "dev",
    "methods": {},
    "version": 1
  },
  "userdoc": {
    "kind": "user",
    "methods": {},
    "version": 1
  }
}