{
  "contractName": "Storage",
  "abi": [
    {
      "inputs": [
        {
          "internalType": "address",
          "name": "",
          "type": "address"
        }
      ],
      "name": "commitmentMap",
      "outputs": [
        {
          "internalType": "bytes32",
          "name": "x",
          "type": "bytes32"
        },
        {
          "internalType": "bytes32",
          "name": "y",
          "type": "bytes32"
        }
      ],
      "stateMutability": "view",
      "type": "function",
      "constant": true
    },
    {
      "inputs": [
        {
          "internalType": "address",
          "name": "_addr",
          "type": "address"
        },
        {
          "components": [
            {
              "internalType": "bytes32",
              "name": "x",
              "type": "bytes32"
            },
            {
              "internalType": "bytes32",
              "name": "y",
              "type": "bytes32"
            }
          ],
          "internalType": "struct Storage.Point",
          "name": "_commitment",
          "type": "tuple"
        }
      ],
      "name": "setCommitment",
      "outputs": [],
      "stateMutability": "nonpayable",
      "type": "function"
    },
    {
      "inputs": [
        {
          "internalType": "address",
          "name": "_addr",
          "type": "address"
        }
      ],
      "name": "getCommitment",
      "outputs": [
        {
          "components": [
            {
              "internalType": "bytes32",
              "name": "x",
              "type": "bytes32"
            },
            {
              "internalType": "bytes32",
              "name": "y",
              "type": "bytes32"
            }
          ],
          "internalType": "struct Storage.Point",
          "name": "",
          "type": "tuple"
        }
      ],
      "stateMutability": "view",
      "type": "function",
      "constant": true
    },
    {
      "inputs": [
        {
          "components": [
            {
              "internalType": "bytes32",
              "name": "x",
              "type": "bytes32"
            },
            {
              "internalType": "bytes32",
              "name": "y",
              "type": "bytes32"
            }
          ],
          "internalType": "struct Storage.Point",
          "name": "p1",
          "type": "tuple"
        },
        {
          "components": [
            {
              "internalType": "bytes32",
              "name": "x",
              "type": "bytes32"
            },
            {
              "internalType": "bytes32",
              "name": "y",
              "type": "bytes32"
            }
          ],
          "internalType": "struct Storage.Point",
          "name": "p2",
          "type": "tuple"
        }
      ],
      "name": "addPoints",
      "outputs": [
        {
          "components": [
            {
              "internalType": "bytes32",
              "name": "x",
              "type": "bytes32"
            },
            {
              "internalType": "bytes32",
              "name": "y",
              "type": "bytes32"
            }
          ],
          "internalType": "struct Storage.Point",
          "name": "",
          "type": "tuple"
        }
      ],
      "stateMutability": "view",
      "type": "function",
      "constant": true
    },
    {
      "inputs": [
        {
          "components": [
            {
              "internalType": "bytes32",
              "name": "x",
              "type": "bytes32"
            },
            {
              "internalType": "bytes32",
              "name": "y",
              "type": "bytes32"
            }
          ],
          "internalType": "struct Storage.Point",
          "name": "point",
          "type": "tuple"
        },
        {
          "internalType": "uint256",
          "name": "scalar",
          "type": "uint256"
        }
      ],
      "name": "multiplyPoint",
      "outputs": [
        {
          "components": [
            {
              "internalType": "bytes32",
              "name": "x",
              "type": "bytes32"
            },
            {
              "internalType": "bytes32",
              "name": "y",
              "type": "bytes32"
            }
          ],
          "internalType": "struct Storage.Point",
          "name": "",
          "type": "tuple"
        }
      ],
      "stateMutability": "view",
      "type": "function",
      "constant": true
    },
    {
      "inputs": [
        {
          "components": [
            {
              "internalType": "bytes32",
              "name": "x",
              "type": "bytes32"
            },
            {
              "internalType": "bytes32",
              "name": "y",
              "type": "bytes32"
            }
          ],
          "internalType": "struct Storage.Point[]",
          "name": "leafNodes",
          "type": "tuple[]"
        }
      ],
      "name": "constructTree",
      "outputs": [
        {
          "components": [
            {
              "internalType": "bytes32",
              "name": "x",
              "type": "bytes32"
            },
            {
              "internalType": "bytes32",
              "name": "y",
              "type": "bytes32"
            }
          ],
          "internalType": "struct Storage.Point[]",
          "name": "",
          "type": "tuple[]"
        }
      ],
      "stateMutability": "view",
      "type": "function",
      "constant": true
    },
    {
      "inputs": [
        {
          "components": [
            {
              "internalType": "bytes32",
              "name": "x",
              "type": "bytes32"
            },
            {
              "internalType": "bytes32",
              "name": "y",
              "type": "bytes32"
            }
          ],
          "internalType": "struct Storage.Point[]",
          "name": "leafNodes",
          "type": "tuple[]"
        },
        {
          "internalType": "uint256",
          "name": "r",
          "type": "uint256"
        }
      ],
      "name": "layerWiseMultiplication",
      "outputs": [
        {
          "components": [
            {
              "internalType": "bytes32",
              "name": "x",
              "type": "bytes32"
            },
            {
              "internalType": "bytes32",
              "name": "y",
              "type": "bytes32"
            }
          ],
          "internalType": "struct Storage.Point",
          "name": "",
          "type": "tuple"
        }
      ],
      "stateMutability": "view",
      "type": "function",
      "constant": true
    }
  ],
  "bytecode": "0x608060405234801561001057600080fd5b50610fd1806100206000396000f3fe608060405234801561001057600080fd5b506004361061007d5760003560e01c806377b761ba1161005b57806377b761ba14610112578063a6dcb0bc14610143578063fa1026dd14610173578063fa805834146101a35761007d565b80632e1e08f71461008257806357899872146100b257806377247d7e146100e2575b600080fd5b61009c60048036038101906100979190610907565b6101bf565b6040516100a99190610985565b60405180910390f35b6100cc60048036038101906100c791906109a0565b610214565b6040516100d99190610985565b60405180910390f35b6100fc60048036038101906100f79190610aad565b610274565b6040516101099190610985565b60405180910390f35b61012c60048036038101906101279190610b67565b610468565b60405161013a929190610ba3565b60405180910390f35b61015d60048036038101906101589190610bcc565b61048c565b60405161016a9190610cf3565b60405180910390f35b61018d60048036038101906101889190610b67565b61063e565b60405161019a9190610985565b60405180910390f35b6101bd60048036038101906101b89190610d15565b6106aa565b005b6101c7610786565b6101cf610786565b604051845181526020850151602082015283604082015260408160608360075afa806101fa57600080fd5b815183526020820151602084015250508091505092915050565b61021c610786565b610224610786565b6040518451815260208501516020820152835160408201526020840151606082015260408160808360065afa8061025a57600080fd5b815183526020820151602084015250508091505092915050565b61027c610786565b60006102878461048c565b90507f30644e72e131a029b85045b68181585d2833e84879b9709143e1f593f0000001836040516020016102bb9190610d76565b6040516020818303038152906040528051906020012060001c6102de9190610dc0565b925060006102ec8585610704565b905060008490506000600287516103039190610e20565b90505b600181106104375760008167ffffffffffffffff81111561032a576103296107d0565b5b60405190808252806020026020018201604052801561036357816020015b610350610786565b8152602001906001900390816103485790505b50905060005b828110156103d25785816001856103809190610e51565b61038a9190610e85565b8151811061039b5761039a610eb9565b5b60200260200101518282815181106103b6576103b5610eb9565b5b6020026020010181905250806103cb90610ee8565b9050610369565b507f30644e72e131a029b85045b68181585d2833e84879b9709143e1f593f00000018061040257610401610d91565b5b838409925060006104138285610704565b905061041f8582610214565b945060028361042e9190610e20565b92505050610306565b61045c838860008151811061044f5761044e610eb9565b5b6020026020010151610214565b94505050505092915050565b60006020528060005260406000206000915090508060000154908060010154905082565b6060600082519050600060016002836104a59190610f30565b6104af9190610e51565b905060008167ffffffffffffffff8111156104cd576104cc6107d0565b5b60405190808252806020026020018201604052801561050657816020015b6104f3610786565b8152602001906001900390816104eb5790505b50905060005b838110156105775785818151811061052757610526610eb9565b5b6020026020010151828260018761053e9190610e51565b6105489190610e85565b8151811061055957610558610eb9565b5b6020026020010181905250808061056f90610ee8565b91505061050c565b5060006001846105879190610e51565b90505b6000811115610632576105f58260018360026105a69190610f30565b6105b09190610e51565b815181106105c1576105c0610eb9565b5b6020026020010151838360026105d79190610f30565b815181106105e8576105e7610eb9565b5b6020026020010151610214565b826001836106039190610e51565b8151811061061457610613610eb9565b5b6020026020010181905250808061062a90610f72565b91505061058a565b50809350505050919050565b610646610786565b6000808373ffffffffffffffffffffffffffffffffffffffff1673ffffffffffffffffffffffffffffffffffffffff168152602001908152602001600020604051806040016040529081600082015481526020016001820154815250509050919050565b806000808473ffffffffffffffffffffffffffffffffffffffff1673ffffffffffffffffffffffffffffffffffffffff16815260200190815260200160002060008201518160000155602082015181600101559050505050565b61070c610786565b60405180604001604052806000801b81526020016000801b81525090506000600190505b83518110156107735761075d828583815181106107505761074f610eb9565b5b6020026020010151610214565b915060028161076c9190610e85565b9050610730565b5061077e81836101bf565b905092915050565b604051806040016040528060008019168152602001600080191681525090565b6000604051905090565b600080fd5b600080fd5b600080fd5b6000601f19601f8301169050919050565b7f4e487b7100000000000000000000000000000000000000000000000000000000600052604160045260246000fd5b610808826107bf565b810181811067ffffffffffffffff82111715610827576108266107d0565b5b80604052505050565b600061083a6107a6565b905061084682826107ff565b919050565b6000819050919050565b61085e8161084b565b811461086957600080fd5b50565b60008135905061087b81610855565b92915050565b600060408284031215610897576108966107ba565b5b6108a16040610830565b905060006108b18482850161086c565b60008301525060206108c58482850161086c565b60208301525092915050565b6000819050919050565b6108e4816108d1565b81146108ef57600080fd5b50565b600081359050610901816108db565b92915050565b6000806060838503121561091e5761091d6107b0565b5b600061092c85828601610881565b925050604061093d858286016108f2565b9150509250929050565b6109508161084b565b82525050565b60408201600082015161096c6000850182610947565b50602082015161097f6020850182610947565b50505050565b600060408201905061099a6000830184610956565b92915050565b600080608083850312156109b7576109b66107b0565b5b60006109c585828601610881565b92505060406109d685828601610881565b9150509250929050565b600080fd5b600067ffffffffffffffff821115610a00576109ff6107d0565b5b602082029050602081019050919050565b600080fd5b6000610a29610a24846109e5565b610830565b90508083825260208201905060408402830185811115610a4c57610a4b610a11565b5b835b81811015610a755780610a618882610881565b845260208401935050604081019050610a4e565b5050509392505050565b600082601f830112610a9457610a936109e0565b5b8135610aa4848260208601610a16565b91505092915050565b60008060408385031215610ac457610ac36107b0565b5b600083013567ffffffffffffffff811115610ae257610ae16107b5565b5b610aee85828601610a7f565b9250506020610aff858286016108f2565b9150509250929050565b600073ffffffffffffffffffffffffffffffffffffffff82169050919050565b6000610b3482610b09565b9050919050565b610b4481610b29565b8114610b4f57600080fd5b50565b600081359050610b6181610b3b565b92915050565b600060208284031215610b7d57610b7c6107b0565b5b6000610b8b84828501610b52565b91505092915050565b610b9d8161084b565b82525050565b6000604082019050610bb86000830185610b94565b610bc56020830184610b94565b9392505050565b600060208284031215610be257610be16107b0565b5b600082013567ffffffffffffffff811115610c0057610bff6107b5565b5b610c0c84828501610a7f565b91505092915050565b600081519050919050565b600082825260208201905092915050565b6000819050602082019050919050565b604082016000820151610c576000850182610947565b506020820151610c6a6020850182610947565b50505050565b6000610c7c8383610c41565b60408301905092915050565b6000602082019050919050565b6000610ca082610c15565b610caa8185610c20565b9350610cb583610c31565b8060005b83811015610ce6578151610ccd8882610c70565b9750610cd883610c88565b925050600181019050610cb9565b5085935050505092915050565b60006020820190508181036000830152610d0d8184610c95565b905092915050565b60008060608385031215610d2c57610d2b6107b0565b5b6000610d3a85828601610b52565b9250506020610d4b85828601610881565b9150509250929050565b6000819050919050565b610d70610d6b826108d1565b610d55565b82525050565b6000610d828284610d5f565b60208201915081905092915050565b7f4e487b7100000000000000000000000000000000000000000000000000000000600052601260045260246000fd5b6000610dcb826108d1565b9150610dd6836108d1565b925082610de657610de5610d91565b5b828206905092915050565b7f4e487b7100000000000000000000000000000000000000000000000000000000600052601160045260246000fd5b6000610e2b826108d1565b9150610e36836108d1565b925082610e4657610e45610d91565b5b828204905092915050565b6000610e5c826108d1565b9150610e67836108d1565b9250828203905081811115610e7f57610e7e610df1565b5b92915050565b6000610e90826108d1565b9150610e9b836108d1565b9250828201905080821115610eb357610eb2610df1565b5b92915050565b7f4e487b7100000000000000000000000000000000000000000000000000000000600052603260045260246000fd5b6000610ef3826108d1565b91507fffffffffffffffffffffffffffffffffffffffffffffffffffffffffffffffff8203610f2557610f24610df1565b5b600182019050919050565b6000610f3b826108d1565b9150610f46836108d1565b9250828202610f54816108d1565b91508282048414831517610f6b57610f6a610df1565b5b5092915050565b6000610f7d826108d1565b915060008203610f9057610f8f610df1565b5b60018203905091905056fea264697066735822122015d2b0c18893bda890ea4781f74bb58922e49e18497272af9a0434bd9effdd5464736f6c63430008130033",
  "immutableReferences": {},
  "source": "pragma solidity ^0.8.9;\n\ncontract Storage {\n    struct Point {\n        bytes32 x;\n        bytes32 y;\n    }\n\n    mapping(address => Point) public commitmentMap;\n\n    function setCommitment(address _addr, Point memory _commitment) public {\n        commitmentMap[_addr] = _commitment;\n    }\n\n    function getCommitment(address _addr) public view returns (Point memory) {\n        return commitmentMap[_addr];\n    }\n\n    function addPoints(\n        Point memory p1,\n        Point memory p2\n    ) public view returns (Point memory) {\n        Point memory result;\n\n        assembly {\n            // Free memory pointer\n            let ptr := mload(0x40)\n\n            // Store p1.x and p1.y in memory\n            mstore(ptr, mload(p1))\n            mstore(add(ptr, 0x20), mload(add(p1, 0x20)))\n\n            // Store p2.x and p2.y in memory\n            mstore(add(ptr, 0x40), mload(p2))\n            mstore(add(ptr, 0x60), mload(add(p2, 0x20)))\n\n            // Precompiled contract (0x06)\n            // p1.x, p1.y, p2.x, p2.y\n            let success := staticcall(gas(), 0x06, ptr, 0x80, ptr, 0x40)\n\n            // Check for success\n            if iszero(success) {\n                revert(0, 0)\n            }\n\n            // Load the result\n            mstore(result, mload(ptr))\n            mstore(add(result, 0x20), mload(add(ptr, 0x20)))\n        }\n\n        return result;\n    }\n\n    function multiplyPoint(\n        Point memory point,\n        uint256 scalar\n    ) public view returns (Point memory) {\n        Point memory result;\n        assembly {\n            // Free memory pointer\n            let ptr := mload(0x40)\n\n            // Store point.x and point.y in memory\n            mstore(ptr, mload(point))\n            mstore(add(ptr, 0x20), mload(add(point, 0x20)))\n\n            // Store scalar in memory\n            mstore(add(ptr, 0x40), scalar)\n\n            // Precompiled contract (0x07)\n            // point.x, point.y, scalar\n            let success := staticcall(gas(), 0x07, ptr, 0x60, ptr, 0x40)\n\n            // Check for success\n            if iszero(success) {\n                revert(0, 0)\n            }\n\n            // Load the result\n            mstore(result, mload(ptr))\n            mstore(add(result, 0x20), mload(add(ptr, 0x20)))\n        }\n\n        return result;\n    }\n\n    // Function to construct the group addtion binary tree\n    function constructTree(\n        Point[] memory leafNodes\n    ) public view returns (Point[] memory) {\n        uint256 nodeCount = leafNodes.length;\n        uint256 totalNodes = nodeCount * 2 - 1;\n        Point[] memory tree = new Point[](totalNodes);\n\n        // Fill the leaf nodes\n        for (uint256 i = 0; i < nodeCount; i++) {\n            tree[nodeCount - 1 + i] = leafNodes[i];\n        }\n\n        // Calculate parent nodes using group addition\n        for (uint256 i = nodeCount - 1; i > 0; i--) {\n            tree[i - 1] = addPoints(tree[2 * i - 1], tree[2 * i]);\n        }\n\n        return tree;\n    }\n\n    function calculateEvenIndexedNodesSum(\n        Point[] memory nodes,\n        uint256 scalar\n    ) internal view returns (Point memory sum) {\n        sum = Point({x: 0, y: 0});\n        for (uint256 i = 1; i < nodes.length; i += 2) {\n            sum = addPoints(sum, nodes[i]);\n        }\n        sum = multiplyPoint(sum, scalar);\n        return sum;\n    }\n\n    function layerWiseMultiplication(\n        Point[] memory leafNodes,\n        uint256 r\n    ) external view returns (Point memory) {\n        Point[] memory tree = constructTree(leafNodes);\n        r =\n            uint256(keccak256(abi.encodePacked(r))) %\n            21888242871839275222246405745257275088548364400416034343698204186575808495617;\n        Point memory result = calculateEvenIndexedNodesSum(leafNodes, r);\n\n        uint256 currentScalar = r;\n        uint256 layerSize = leafNodes.length / 2;\n\n        for (; layerSize >= 1; ) {\n            Point[] memory layerNodes = new Point[](layerSize);\n            for (uint256 i = 0; i < layerSize; ++i) {\n                layerNodes[i] = tree[layerSize - 1 + i];\n            }\n            currentScalar = mulmod(\n                currentScalar,\n                currentScalar,\n                21888242871839275222246405745257275088548364400416034343698204186575808495617\n            );\n            Point memory layerSum = calculateEvenIndexedNodesSum(\n                layerNodes,\n                currentScalar\n            );\n            result = addPoints(result, layerSum);\n\n            layerSize = layerSize / 2;\n        }\n\n        return addPoints(result, leafNodes[0]);\n    }\n}\n",
  "sourcePath": "/Users/mangoo/Documents/blockchain/record/contracts/Storage.sol",
  "compiler": {
    "name": "solc",
    "version": "0.8.19+commit.7dd6d404.Emscripten.clang"
  },
  "schemaVersion": "3.4.11",
  "updatedAt": "2023-11-05T07:26:39.466Z",
  "networkType": "ethereum",
  "devdoc": {
    "kind": "dev",
    "methods": {},
    "version": 1
  },
  "userdoc": {
    "kind": "user",
    "methods": {},
    "version": 1
  }
}